:03000000020800F3
:0C080000787FE4F6D8FD758116020847E9
:070962000212000001140065
:0F097600758901758CFC758A66D28CE4F5802238
:10088C00E4F515F516120976308DFDC28D758CFCCC
:10089C00758A66E514AE12AF137010FC7D0A12084F
:1008AC00F57D0212094A75140180117C007D0A1233
:1008BC0008F5AF057D0112094AE4F5140516E51695
:1008CC0070020515C394E8E515940340BBE4F515D7
:1008DC00F5160513E513700205129464E5129400E5
:0908EC0040A6E4F512F513809F0B
:0C0969000A0840792430191202780010AE
:10094A00EFD39409501174082FF8E6F590BD01040D
:08095A00758002227580012264
:10080C0002088CE493A3F8E493A34003F68001F26E
:10081C0008DFF48029E493A3F85407240CC8C333ED
:10082C00C4540F4420C8834004F456800146F6DFBC
:10083C00E4800B0102040810204080900962E47EE1
:10084C00019360BCA3FF543F30E509541FFEE493B1
:10085C00A360010ECF54C025E060A840B8E493A378
:10086C00FAE493A3F8E493A3C8C582C8CAC583CAA3
:10087C00F0A3C8C582C8CAC583CADFE9DEE780BE5B
:010975000081
:1008F500BC000BBE0029EF8DF084FFADF022E4CCE7
:10090500F875F008EF2FFFEE33FEEC33FCEE9DECAF
:10091500984005FCEE9DFE0FD5F0E9E4CEFD22EDF5
:10092500F8F5F0EE8420D21CFEADF075F008EF2F3F
:10093500FFED33FD4007985006D5F0F222C398FD30
:050945000FD5F0EA22CD
:00000001FF
